{
  "_format": "hh-sol-artifact-1",
  "contractName": "Token",
  "sourceName": "contracts/Token.sol",
  "abi": [
    {
      "anonymous": false,
      "inputs": [
        {
          "indexed": true,
          "internalType": "address",
          "name": "owner",
          "type": "address"
        },
        {
          "indexed": true,
          "internalType": "address",
          "name": "spender",
          "type": "address"
        },
        {
          "indexed": false,
          "internalType": "uint256",
          "name": "value",
          "type": "uint256"
        }
      ],
      "name": "Approval",
      "type": "event"
    },
    {
      "anonymous": false,
      "inputs": [
        {
          "indexed": true,
          "internalType": "address",
          "name": "from",
          "type": "address"
        },
        {
          "indexed": true,
          "internalType": "address",
          "name": "to",
          "type": "address"
        },
        {
          "indexed": false,
          "internalType": "uint256",
          "name": "value",
          "type": "uint256"
        }
      ],
      "name": "Transfer",
      "type": "event"
    },
    {
      "inputs": [
        {
          "internalType": "address",
          "name": "owner",
          "type": "address"
        },
        {
          "internalType": "address",
          "name": "spender",
          "type": "address"
        }
      ],
      "name": "allowance",
      "outputs": [
        {
          "internalType": "uint256",
          "name": "",
          "type": "uint256"
        }
      ],
      "stateMutability": "view",
      "type": "function"
    },
    {
      "inputs": [
        {
          "internalType": "address",
          "name": "spender",
          "type": "address"
        },
        {
          "internalType": "uint256",
          "name": "value",
          "type": "uint256"
        }
      ],
      "name": "approve",
      "outputs": [
        {
          "internalType": "bool",
          "name": "",
          "type": "bool"
        }
      ],
      "stateMutability": "nonpayable",
      "type": "function"
    },
    {
      "inputs": [
        {
          "internalType": "address",
          "name": "",
          "type": "address"
        }
      ],
      "name": "balanceOf",
      "outputs": [
        {
          "internalType": "uint256",
          "name": "",
          "type": "uint256"
        }
      ],
      "stateMutability": "view",
      "type": "function"
    },
    {
      "inputs": [
        {
          "internalType": "address payable",
          "name": "dest",
          "type": "address"
        }
      ],
      "name": "burn",
      "outputs": [],
      "stateMutability": "nonpayable",
      "type": "function"
    },
    {
      "inputs": [],
      "name": "decimals",
      "outputs": [
        {
          "internalType": "uint256",
          "name": "",
          "type": "uint256"
        }
      ],
      "stateMutability": "view",
      "type": "function"
    },
    {
      "inputs": [],
      "name": "getNumTokenHolders",
      "outputs": [
        {
          "internalType": "uint256",
          "name": "",
          "type": "uint256"
        }
      ],
      "stateMutability": "view",
      "type": "function"
    },
    {
      "inputs": [
        {
          "internalType": "uint256",
          "name": "index",
          "type": "uint256"
        }
      ],
      "name": "getTokenHolder",
      "outputs": [
        {
          "internalType": "address",
          "name": "",
          "type": "address"
        }
      ],
      "stateMutability": "view",
      "type": "function"
    },
    {
      "inputs": [
        {
          "internalType": "address",
          "name": "payee",
          "type": "address"
        }
      ],
      "name": "getWithdrawableDividend",
      "outputs": [
        {
          "internalType": "uint256",
          "name": "",
          "type": "uint256"
        }
      ],
      "stateMutability": "view",
      "type": "function"
    },
    {
      "inputs": [],
      "name": "mint",
      "outputs": [],
      "stateMutability": "payable",
      "type": "function"
    },
    {
      "inputs": [],
      "name": "name",
      "outputs": [
        {
          "internalType": "string",
          "name": "",
          "type": "string"
        }
      ],
      "stateMutability": "view",
      "type": "function"
    },
    {
      "inputs": [],
      "name": "recordDividend",
      "outputs": [],
      "stateMutability": "payable",
      "type": "function"
    },
    {
      "inputs": [],
      "name": "symbol",
      "outputs": [
        {
          "internalType": "string",
          "name": "",
          "type": "string"
        }
      ],
      "stateMutability": "view",
      "type": "function"
    },
    {
      "inputs": [],
      "name": "totalSupply",
      "outputs": [
        {
          "internalType": "uint256",
          "name": "",
          "type": "uint256"
        }
      ],
      "stateMutability": "view",
      "type": "function"
    },
    {
      "inputs": [
        {
          "internalType": "address",
          "name": "to",
          "type": "address"
        },
        {
          "internalType": "uint256",
          "name": "value",
          "type": "uint256"
        }
      ],
      "name": "transfer",
      "outputs": [
        {
          "internalType": "bool",
          "name": "",
          "type": "bool"
        }
      ],
      "stateMutability": "nonpayable",
      "type": "function"
    },
    {
      "inputs": [
        {
          "internalType": "address",
          "name": "from",
          "type": "address"
        },
        {
          "internalType": "address",
          "name": "to",
          "type": "address"
        },
        {
          "internalType": "uint256",
          "name": "value",
          "type": "uint256"
        }
      ],
      "name": "transferFrom",
      "outputs": [
        {
          "internalType": "bool",
          "name": "",
          "type": "bool"
        }
      ],
      "stateMutability": "nonpayable",
      "type": "function"
    },
    {
      "inputs": [
        {
          "internalType": "address payable",
          "name": "dest",
          "type": "address"
        }
      ],
      "name": "withdrawDividend",
      "outputs": [],
      "stateMutability": "nonpayable",
      "type": "function"
    }
  ],
  "bytecode": "0x601260015560c0604052600a6080819052692a32b9ba103a37b5b2b760b11b60a0908152610030916002919061006f565b5060408051808201909152600480825263151154d560e21b602090920191825261005c9160039161006f565b5034801561006957600080fd5b50610102565b828054600181600116156101000203166002900490600052602060002090601f016020900481019282601f106100b057805160ff19168380011785556100dd565b828001600101855582156100dd579182015b828111156100dd5782518255916020019190600101906100c2565b506100e99291506100ed565b5090565b5b808211156100e957600081556001016100ee565b610fdf80620001126000396000f3fe6080604052600436106100f35760003560e01c806389afcb441161008a578063a4138b9b11610059578063a4138b9b14610323578063a9059cbb14610356578063ca55954c1461038f578063dd62ed3e146103d5576100f3565b806389afcb441461029357806395d89b41146102c65780639c53c0ca146102db578063a0ced69d1461030e576100f3565b806323b872dd116100c657806323b872dd14610200578063313ce5671461024357806350ca75551461025857806370a0823114610260576100f3565b806306fdde03146100f8578063095ea7b3146101825780631249c58b146101cf57806318160ddd146101d9575b600080fd5b34801561010457600080fd5b5061010d610410565b6040805160208082528351818301528351919283929083019185019080838360005b8381101561014757818101518382015260200161012f565b50505050905090810190601f1680156101745780820380516001836020036101000a031916815260200191505b509250505060405180910390f35b34801561018e57600080fd5b506101bb600480360360408110156101a557600080fd5b506001600160a01b03813516906020013561049b565b604080519115158252519081900360200190f35b6101d7610502565b005b3480156101e557600080fd5b506101ee6105c3565b60408051918252519081900360200190f35b34801561020c57600080fd5b506101bb6004803603606081101561022357600080fd5b506001600160a01b038135811691602081013590911690604001356105c9565b34801561024f57600080fd5b506101ee61068c565b6101d7610692565b34801561026c57600080fd5b506101ee6004803603602081101561028357600080fd5b50356001600160a01b03166107c2565b34801561029f57600080fd5b506101d7600480360360208110156102b657600080fd5b50356001600160a01b03166107d4565b3480156102d257600080fd5b5061010d6108bf565b3480156102e757600080fd5b506101d7600480360360208110156102fe57600080fd5b50356001600160a01b031661091a565b34801561031a57600080fd5b506101ee6109b4565b34801561032f57600080fd5b506101ee6004803603602081101561034657600080fd5b50356001600160a01b03166109ba565b34801561036257600080fd5b506101bb6004803603604081101561037957600080fd5b506001600160a01b0381351690602001356109d9565b34801561039b57600080fd5b506103b9600480360360208110156103b257600080fd5b50356109ef565b604080516001600160a01b039092168252519081900360200190f35b3480156103e157600080fd5b506101ee600480360360408110156103f857600080fd5b506001600160a01b0381358116916020013516610a37565b6002805460408051602060018416156101000260001901909316849004601f810184900484028201840190925281815292918301828280156104935780601f1061046857610100808354040283529160200191610493565b820191906000526020600020905b81548152906001019060200180831161047657829003601f168201915b505050505081565b3360008181526005602090815260408083206001600160a01b038716808552908352818420869055815186815291519394909390927f8c5be1e5ebec7d5bd14f71427d1e84f3dd0314c0f7b2291e5b200ac8c7c3b925928290030190a35060015b92915050565b60003411610545576040805162461bcd60e51b815260206004820152600b60248201526a139bc8115512081cd95b9d60aa1b604482015290519081900360640190fd5b3360009081526004602052604090205461055f9034610a62565b336000908152600460205260408120919091555461057d9034610a62565b60005561058933610ac3565b60408051348152905133916000917fddf252ad1be2c89b69c2b068fc378daa952ba7f163c4a11628f55a4df523b3ef9181900360200190a3565b60005481565b6001600160a01b03831660009081526005602090815260408083203384529091528120546105f79083610b61565b6001600160a01b0385166000908152600560209081526040808320338452909152902055610626848484610ba3565b6001600160a01b0384166000818152600560209081526040808320338085529083529281902054815190815290519293927f8c5be1e5ebec7d5bd14f71427d1e84f3dd0314c0f7b2291e5b200ac8c7c3b925929181900390910190a35060019392505050565b60015481565b600034116106d5576040805162461bcd60e51b815260206004820152600b60248201526a139bc8115512081cd95b9d60aa1b604482015290519081900360640190fd5b6000805411610717576040805162461bcd60e51b81526020600482015260096024820152684e6f20737570706c7960b81b604482015290519081900360640190fd5b60005b6006548110156107bf5760006006828154811061073357fe5b600091825260208083209091015482546001600160a01b03909116808452600490925260408320549193506107739161076d903490610cc3565b90610d1c565b6001600160a01b0383166000908152600860205260409020549091506107999082610a62565b6001600160a01b039092166000908152600860205260409020919091555060010161071a565b50565b60046020526000908152604090205481565b3360009081526004602052604090205480610823576040805162461bcd60e51b815260206004820152600a6024820152694e6f2062616c616e636560b01b604482015290519081900360640190fd5b336000908152600460205260408120819055546108409082610b61565b60005561084c33610d5e565b6040516001600160a01b0383169082156108fc029083906000818181858888f19350505050158015610882573d6000803e3d6000fd5b5060408051828152905160009133917fddf252ad1be2c89b69c2b068fc378daa952ba7f163c4a11628f55a4df523b3ef9181900360200190a35050565b6003805460408051602060026001851615610100026000190190941693909304601f810184900484028201840190925281815292918301828280156104935780601f1061046857610100808354040283529160200191610493565b336000908152600860205260409020548061096a576040805162461bcd60e51b815260206004820152600b60248201526a139bc8191a5d9a59195b9960aa1b604482015290519081900360640190fd5b33600090815260086020526040808220829055516001600160a01b0384169183156108fc02918491818181858888f193505050501580156109af573d6000803e3d6000fd5b505050565b60065490565b6001600160a01b0381166000908152600860205260409020545b919050565b60006109e6338484610ba3565b50600192915050565b60008115806109ff575060065482115b15610a0c575060006109d4565b60066001830381548110610a1c57fe5b6000918252602090912001546001600160a01b031692915050565b6001600160a01b03918216600090815260056020908152604080832093909416825291909152205490565b600082820183811015610abc576040805162461bcd60e51b815260206004820152601b60248201527f536166654d6174683a206164646974696f6e206f766572666c6f770000000000604482015290519081900360640190fd5b9392505050565b6001600160a01b03811660009081526004602052604090205415801590610b0057506001600160a01b038116600090815260076020526040902054155b156107bf57600680546001810182557ff652222313e28459528d920b65115c16c04f3efc82aaedc97be59f3f377c0d3f0180546001600160a01b0319166001600160a01b039390931692831790555460009182526007602052604090912055565b6000610abc83836040518060400160405280601e81526020017f536166654d6174683a207375627472616374696f6e206f766572666c6f770000815250610e8c565b6001600160a01b038216610bf0576040805162461bcd60e51b815260206004820152600f60248201526e496e76616c6964206164647265737360881b604482015290519081900360640190fd5b6001600160a01b038316600090815260046020526040902054610c139082610b61565b6001600160a01b038085166000908152600460205260408082209390935590841681522054610c429082610a62565b6001600160a01b0383166000908152600460205260409020558015610c7357610c6a83610d5e565b610c7382610ac3565b816001600160a01b0316836001600160a01b03167fddf252ad1be2c89b69c2b068fc378daa952ba7f163c4a11628f55a4df523b3ef836040518082815260200191505060405180910390a3505050565b600082610cd2575060006104fc565b82820282848281610cdf57fe5b0414610abc5760405162461bcd60e51b8152600401808060200182810382526021815260200180610f896021913960400191505060405180910390fd5b6000610abc83836040518060400160405280601a81526020017f536166654d6174683a206469766973696f6e206279207a65726f000000000000815250610f23565b6001600160a01b038116600090815260046020526040902054158015610d9b57506001600160a01b03811660009081526007602052604090205415155b156107bf576001600160a01b0381166000908152600760205260409020546006546000199182019101808214610e4157600060068281548110610dda57fe5b600091825260209091200154600680546001600160a01b039092169250829185908110610e0357fe5b600091825260208083209190910180546001600160a01b0319166001600160a01b039485161790559290911681526007909152604090206001830190555b6006805480610e4c57fe5b60008281526020808220830160001990810180546001600160a01b03191690559092019092556001600160a01b0385168252600790526040812055505050565b60008184841115610f1b5760405162461bcd60e51b81526004018080602001828103825283818151815260200191508051906020019080838360005b83811015610ee0578181015183820152602001610ec8565b50505050905090810190601f168015610f0d5780820380516001836020036101000a031916815260200191505b509250505060405180910390fd5b505050900390565b60008183610f725760405162461bcd60e51b8152602060048201818152835160248401528351909283926044909101919085019080838360008315610ee0578181015183820152602001610ec8565b506000838581610f7e57fe5b049594505050505056fe536166654d6174683a206d756c7469706c69636174696f6e206f766572666c6f77a2646970667358221220311e6f93f02c1f667e97782a7423ce35622dba09a71ed1634409bbd5e6bc951d64736f6c63430007000033",
  "linkReferences": {},
  "deployedLinkReferences": {}
}